{
  "contractName": "Vesting",
  "abi": [
    {
      "inputs": [],
      "stateMutability": "nonpayable",
      "type": "constructor"
    },
    {
      "anonymous": false,
      "inputs": [
        {
          "indexed": true,
          "internalType": "uint256",
          "name": "streamId",
          "type": "uint256"
        },
        {
          "indexed": true,
          "internalType": "address",
          "name": "sender",
          "type": "address"
        },
        {
          "indexed": true,
          "internalType": "address",
          "name": "recipient",
          "type": "address"
        },
        {
          "indexed": false,
          "internalType": "uint256",
          "name": "senderBalance",
          "type": "uint256"
        },
        {
          "indexed": false,
          "internalType": "uint256",
          "name": "recipientBalance",
          "type": "uint256"
        }
      ],
      "name": "CancelStream",
      "type": "event"
    },
    {
      "anonymous": false,
      "inputs": [
        {
          "indexed": true,
          "internalType": "uint256",
          "name": "streamId",
          "type": "uint256"
        },
        {
          "indexed": true,
          "internalType": "address",
          "name": "sender",
          "type": "address"
        },
        {
          "indexed": true,
          "internalType": "address",
          "name": "recipient",
          "type": "address"
        },
        {
          "indexed": false,
          "internalType": "uint256",
          "name": "deposit",
          "type": "uint256"
        },
        {
          "indexed": false,
          "internalType": "address",
          "name": "tokenAddress",
          "type": "address"
        },
        {
          "indexed": false,
          "internalType": "uint256",
          "name": "startTime",
          "type": "uint256"
        },
        {
          "indexed": false,
          "internalType": "uint256",
          "name": "stopTime",
          "type": "uint256"
        }
      ],
      "name": "CreateStream",
      "type": "event"
    },
    {
      "anonymous": false,
      "inputs": [
        {
          "indexed": true,
          "internalType": "uint256",
          "name": "streamId",
          "type": "uint256"
        },
        {
          "indexed": true,
          "internalType": "address",
          "name": "recipient",
          "type": "address"
        },
        {
          "indexed": false,
          "internalType": "uint256",
          "name": "amount",
          "type": "uint256"
        }
      ],
      "name": "WithdrawlFromStream",
      "type": "event"
    },
    {
      "inputs": [],
      "name": "nxtStreamId",
      "outputs": [
        {
          "internalType": "uint256",
          "name": "",
          "type": "uint256"
        }
      ],
      "stateMutability": "view",
      "type": "function"
    },
    {
      "inputs": [
        {
          "internalType": "uint256",
          "name": "streamId",
          "type": "uint256"
        }
      ],
      "name": "getStream",
      "outputs": [
        {
          "internalType": "address",
          "name": "sender",
          "type": "address"
        },
        {
          "internalType": "address",
          "name": "recipient",
          "type": "address"
        },
        {
          "internalType": "address",
          "name": "tokenAddress",
          "type": "address"
        },
        {
          "internalType": "uint256",
          "name": "deposit",
          "type": "uint256"
        },
        {
          "internalType": "uint256",
          "name": "startTime",
          "type": "uint256"
        },
        {
          "internalType": "uint256",
          "name": "stopTime",
          "type": "uint256"
        },
        {
          "internalType": "uint256",
          "name": "remainingBalance",
          "type": "uint256"
        },
        {
          "internalType": "uint256",
          "name": "ratePerSecond",
          "type": "uint256"
        }
      ],
      "stateMutability": "view",
      "type": "function"
    },
    {
      "inputs": [
        {
          "internalType": "uint256",
          "name": "streamId",
          "type": "uint256"
        }
      ],
      "name": "deltaOf",
      "outputs": [
        {
          "internalType": "uint256",
          "name": "delta",
          "type": "uint256"
        }
      ],
      "stateMutability": "view",
      "type": "function"
    },
    {
      "inputs": [
        {
          "internalType": "uint256",
          "name": "streamId",
          "type": "uint256"
        },
        {
          "internalType": "address",
          "name": "who",
          "type": "address"
        }
      ],
      "name": "balanceOf",
      "outputs": [
        {
          "internalType": "uint256",
          "name": "",
          "type": "uint256"
        }
      ],
      "stateMutability": "view",
      "type": "function"
    },
    {
      "inputs": [
        {
          "internalType": "address",
          "name": "recipient",
          "type": "address"
        },
        {
          "internalType": "uint256",
          "name": "deposit",
          "type": "uint256"
        },
        {
          "internalType": "address",
          "name": "tokenAddress",
          "type": "address"
        },
        {
          "internalType": "uint256",
          "name": "startTime",
          "type": "uint256"
        },
        {
          "internalType": "uint256",
          "name": "stopTime",
          "type": "uint256"
        }
      ],
      "name": "createStream",
      "outputs": [
        {
          "internalType": "uint256",
          "name": "",
          "type": "uint256"
        }
      ],
      "stateMutability": "nonpayable",
      "type": "function"
    },
    {
      "inputs": [
        {
          "internalType": "uint256",
          "name": "streamId",
          "type": "uint256"
        },
        {
          "internalType": "uint256",
          "name": "amount",
          "type": "uint256"
        }
      ],
      "name": "withdrawFromStream",
      "outputs": [
        {
          "internalType": "bool",
          "name": "",
          "type": "bool"
        }
      ],
      "stateMutability": "nonpayable",
      "type": "function"
    },
    {
      "inputs": [
        {
          "internalType": "uint256",
          "name": "streamId",
          "type": "uint256"
        }
      ],
      "name": "cancelStream",
      "outputs": [
        {
          "internalType": "bool",
          "name": "",
          "type": "bool"
        }
      ],
      "stateMutability": "nonpayable",
      "type": "function"
    }
  ],
  "bytecode": "0x608060405234801561001057600080fd5b5060016000819055506103e860018190555061275d806100316000396000f3fe608060405234801561001057600080fd5b506004361061007d5760003560e01c80637a9b2c6c1161005b5780637a9b2c6c14610100578063894e9a0d14610130578063a82ccd4d14610167578063cc1b4bf6146101975761007d565b80633656eec2146100825780633b32c734146100b25780636db9241b146100d0575b600080fd5b61009c60048036038101906100979190611b0a565b6101c7565b6040516100a99190611b59565b60405180910390f35b6100ba61049c565b6040516100c79190611b59565b60405180910390f35b6100ea60048036038101906100e59190611b74565b6104a2565b6040516100f79190611bbc565b60405180910390f35b61011a60048036038101906101159190611bd7565b610a92565b6040516101279190611bbc565b60405180910390f35b61014a60048036038101906101459190611b74565b611059565b60405161015e989796959493929190611c26565b60405180910390f35b610181600480360381019061017c9190611b74565b6111fd565b60405161018e9190611b59565b60405180910390f35b6101b160048036038101906101ac9190611ca4565b611311565b6040516101be9190611b59565b60405180910390f35b6000826002600082815260200190815260200160002060070160149054906101000a900460ff1661022d576040517f08c379a000000000000000000000000000000000000000000000000000000000815260040161022490611d7c565b60405180910390fd5b6000600260008681526020019081526020016000206040518061012001604052908160008201548152602001600182015481526020016002820154815260200160038201548152602001600482015481526020016005820160009054906101000a900473ffffffffffffffffffffffffffffffffffffffff1673ffffffffffffffffffffffffffffffffffffffff1673ffffffffffffffffffffffffffffffffffffffff1681526020016006820160009054906101000a900473ffffffffffffffffffffffffffffffffffffffff1673ffffffffffffffffffffffffffffffffffffffff1673ffffffffffffffffffffffffffffffffffffffff1681526020016007820160009054906101000a900473ffffffffffffffffffffffffffffffffffffffff1673ffffffffffffffffffffffffffffffffffffffff1673ffffffffffffffffffffffffffffffffffffffff1681526020016007820160149054906101000a900460ff161515151581525050905060006103aa866111fd565b905060008260200151826103be9190611dcb565b90508260400151836000015111156103f8576000836040015184600001516103e69190611e25565b905080826103f49190611e25565b9150505b8260c0015173ffffffffffffffffffffffffffffffffffffffff168673ffffffffffffffffffffffffffffffffffffffff16141561044a578083604001516104409190611e25565b9450505050610495565b8260a0015173ffffffffffffffffffffffffffffffffffffffff168673ffffffffffffffffffffffffffffffffffffffff16141561048d57809450505050610495565b600094505050505b5092915050565b60015481565b6000600260005414156104ea576040517f08c379a00000000000000000000000000000000000000000000000000000000081526004016104e190611ea5565b60405180910390fd5b6002600081905550816002600082815260200190815260200160002060070160149054906101000a900460ff16610556576040517f08c379a000000000000000000000000000000000000000000000000000000000815260040161054d90611d7c565b60405180910390fd5b6002600084815260200190815260200160002060050160009054906101000a900473ffffffffffffffffffffffffffffffffffffffff1673ffffffffffffffffffffffffffffffffffffffff166105ab611a69565b73ffffffffffffffffffffffffffffffffffffffff16148061063557506002600084815260200190815260200160002060060160009054906101000a900473ffffffffffffffffffffffffffffffffffffffff1673ffffffffffffffffffffffffffffffffffffffff1661061d611a69565b73ffffffffffffffffffffffffffffffffffffffff16145b610674576040517f08c379a000000000000000000000000000000000000000000000000000000000815260040161066b90611f11565b60405180910390fd5b6000600260008581526020019081526020016000206040518061012001604052908160008201548152602001600182015481526020016002820154815260200160038201548152602001600482015481526020016005820160009054906101000a900473ffffffffffffffffffffffffffffffffffffffff1673ffffffffffffffffffffffffffffffffffffffff1673ffffffffffffffffffffffffffffffffffffffff1681526020016006820160009054906101000a900473ffffffffffffffffffffffffffffffffffffffff1673ffffffffffffffffffffffffffffffffffffffff1673ffffffffffffffffffffffffffffffffffffffff1681526020016007820160009054906101000a900473ffffffffffffffffffffffffffffffffffffffff1673ffffffffffffffffffffffffffffffffffffffff1673ffffffffffffffffffffffffffffffffffffffff1681526020016007820160149054906101000a900460ff161515151581525050905060006107f6858360c001516101c7565b90506000610808868460a001516101c7565b905060008360e00151905060008211156108ac578073ffffffffffffffffffffffffffffffffffffffff1663a9059cbb8560a00151846040518363ffffffff1660e01b815260040161085b929190611f31565b6020604051808303816000875af115801561087a573d6000803e3d6000fd5b505050506040513d601f19601f8201168201806040525081019061089e9190611f86565b6108ab576108aa611fb3565b5b5b6000831115610945578073ffffffffffffffffffffffffffffffffffffffff1663a9059cbb8560c00151856040518363ffffffff1660e01b81526004016108f4929190611f31565b6020604051808303816000875af1158015610913573d6000803e3d6000fd5b505050506040513d601f19601f820116820180604052508101906109379190611f86565b61094457610943611fb3565b5b5b6002600088815260200190815260200160002060008082016000905560018201600090556002820160009055600382016000905560048201600090556005820160006101000a81549073ffffffffffffffffffffffffffffffffffffffff02191690556006820160006101000a81549073ffffffffffffffffffffffffffffffffffffffff02191690556007820160006101000a81549073ffffffffffffffffffffffffffffffffffffffff02191690556007820160146101000a81549060ff021916905550508360a0015173ffffffffffffffffffffffffffffffffffffffff168460c0015173ffffffffffffffffffffffffffffffffffffffff16887fca3e6079b726e7728802a0537949e2d1c7762304fa641fb06eb56daf2ba8c6b98686604051610a74929190611fe2565b60405180910390a46001955050505050506001600081905550919050565b600060026000541415610ada576040517f08c379a0000000000000000000000000000000000000000000000000000000008152600401610ad190611ea5565b60405180910390fd5b6002600081905550826002600082815260200190815260200160002060070160149054906101000a900460ff16610b46576040517f08c379a0000000000000000000000000000000000000000000000000000000008152600401610b3d90611d7c565b60405180910390fd5b6002600085815260200190815260200160002060050160009054906101000a900473ffffffffffffffffffffffffffffffffffffffff1673ffffffffffffffffffffffffffffffffffffffff16610b9b611a69565b73ffffffffffffffffffffffffffffffffffffffff161480610c2557506002600085815260200190815260200160002060060160009054906101000a900473ffffffffffffffffffffffffffffffffffffffff1673ffffffffffffffffffffffffffffffffffffffff16610c0d611a69565b73ffffffffffffffffffffffffffffffffffffffff16145b610c64576040517f08c379a0000000000000000000000000000000000000000000000000000000008152600401610c5b90611f11565b60405180910390fd5b60008311610ca7576040517f08c379a0000000000000000000000000000000000000000000000000000000008152600401610c9e90612057565b60405180910390fd5b6000600260008681526020019081526020016000206040518061012001604052908160008201548152602001600182015481526020016002820154815260200160038201548152602001600482015481526020016005820160009054906101000a900473ffffffffffffffffffffffffffffffffffffffff1673ffffffffffffffffffffffffffffffffffffffff1673ffffffffffffffffffffffffffffffffffffffff1681526020016006820160009054906101000a900473ffffffffffffffffffffffffffffffffffffffff1673ffffffffffffffffffffffffffffffffffffffff1673ffffffffffffffffffffffffffffffffffffffff1681526020016007820160009054906101000a900473ffffffffffffffffffffffffffffffffffffffff1673ffffffffffffffffffffffffffffffffffffffff1673ffffffffffffffffffffffffffffffffffffffff1681526020016007820160149054906101000a900460ff16151515158152505090506000610e29868360a001516101c7565b905084811015610e6e576040517f08c379a0000000000000000000000000000000000000000000000000000000008152600401610e65906120c3565b60405180910390fd5b8481610e7a9190611e25565b826040018181525050600082604001511415610f58576002600087815260200190815260200160002060008082016000905560018201600090556002820160009055600382016000905560048201600090556005820160006101000a81549073ffffffffffffffffffffffffffffffffffffffff02191690556006820160006101000a81549073ffffffffffffffffffffffffffffffffffffffff02191690556007820160006101000a81549073ffffffffffffffffffffffffffffffffffffffff02191690556007820160146101000a81549060ff021916905550505b60008260e0015173ffffffffffffffffffffffffffffffffffffffff1663a9059cbb8460a00151886040518363ffffffff1660e01b8152600401610f9d929190611f31565b6020604051808303816000875af1158015610fbc573d6000803e3d6000fd5b505050506040513d601f19601f82011682018060405250810190610fe09190611f86565b905080610ff057610fef611fb3565b5b8260a0015173ffffffffffffffffffffffffffffffffffffffff16877f946c3350ef39a1cf4e93652622b8cb5dfb94b95bd00ef951d7f40cf33e95e0c78860405161103b9190611b59565b60405180910390a36001945050505050600160008190555092915050565b600080600080600080600080886002600082815260200190815260200160002060070160149054906101000a900460ff166110c9576040517f08c379a00000000000000000000000000000000000000000000000000000000081526004016110c090611d7c565b60405180910390fd5b600260008b815260200190815260200160002060060160009054906101000a900473ffffffffffffffffffffffffffffffffffffffff169850600260008b815260200190815260200160002060050160009054906101000a900473ffffffffffffffffffffffffffffffffffffffff169750600260008b815260200190815260200160002060070160009054906101000a900473ffffffffffffffffffffffffffffffffffffffff169650600260008b8152602001908152602001600020600001549550600260008b8152602001908152602001600020600301549450600260008b8152602001908152602001600020600401549350600260008b8152602001908152602001600020600201549250600260008b815260200190815260200160002060010154915050919395975091939597565b6000816002600082815260200190815260200160002060070160149054906101000a900460ff16611263576040517f08c379a000000000000000000000000000000000000000000000000000000000815260040161125a90611d7c565b60405180910390fd5b60026000848152602001908152602001600020600301544211611289576000915061130b565b60026000848152602001908152602001600020600401544210156112d0576002600084815260200190815260200160002060030154426112c99190611e25565b915061130b565b600260008481526020019081526020016000206003015460026000858152602001908152602001600020600401546113089190611e25565b91505b50919050565b600060026000541415611359576040517f08c379a000000000000000000000000000000000000000000000000000000000815260040161135090611ea5565b60405180910390fd5b60026000819055504283116113a3576040517f08c379a000000000000000000000000000000000000000000000000000000000815260040161139a9061212f565b60405180910390fd5b600085116113e6576040517f08c379a00000000000000000000000000000000000000000000000000000000081526004016113dd9061219b565b60405180910390fd5b600073ffffffffffffffffffffffffffffffffffffffff168473ffffffffffffffffffffffffffffffffffffffff161415611456576040517f08c379a000000000000000000000000000000000000000000000000000000000815260040161144d90612207565b60405180910390fd5b600073ffffffffffffffffffffffffffffffffffffffff168673ffffffffffffffffffffffffffffffffffffffff1614156114c6576040517f08c379a00000000000000000000000000000000000000000000000000000000081526004016114bd90612273565b60405180910390fd5b3373ffffffffffffffffffffffffffffffffffffffff168673ffffffffffffffffffffffffffffffffffffffff161415611535576040517f08c379a000000000000000000000000000000000000000000000000000000000815260040161152c906122df565b60405180910390fd5b3073ffffffffffffffffffffffffffffffffffffffff168673ffffffffffffffffffffffffffffffffffffffff1614156115a4576040517f08c379a000000000000000000000000000000000000000000000000000000000815260040161159b90612371565b60405180910390fd5b600083836115b29190611e25565b9050600081116115f7576040517f08c379a00000000000000000000000000000000000000000000000000000000081526004016115ee906123dd565b60405180910390fd5b8086101561163a576040517f08c379a000000000000000000000000000000000000000000000000000000000815260040161163190612449565b60405180910390fd5b600081876116489190612498565b14611688576040517f08c379a000000000000000000000000000000000000000000000000000000000815260040161167f90612515565b60405180910390fd5b600085905060008173ffffffffffffffffffffffffffffffffffffffff166370a082316116b3611a69565b6040518263ffffffff1660e01b81526004016116cf9190612535565b602060405180830381865afa1580156116ec573d6000803e3d6000fd5b505050506040513d601f19601f820116820180604052508101906117109190612565565b905080881115611755576040517f08c379a000000000000000000000000000000000000000000000000000000000815260040161174c90612604565b60405180910390fd5b600060015490506000848a61176a9190612624565b90506040518061012001604052808b81526020018281526020018b81526020018981526020018881526020018c73ffffffffffffffffffffffffffffffffffffffff1681526020013373ffffffffffffffffffffffffffffffffffffffff1681526020018a73ffffffffffffffffffffffffffffffffffffffff1681526020016001151581525060026000848152602001908152602001600020600082015181600001556020820151816001015560408201518160020155606082015181600301556080820151816004015560a08201518160050160006101000a81548173ffffffffffffffffffffffffffffffffffffffff021916908373ffffffffffffffffffffffffffffffffffffffff16021790555060c08201518160060160006101000a81548173ffffffffffffffffffffffffffffffffffffffff021916908373ffffffffffffffffffffffffffffffffffffffff16021790555060e08201518160070160006101000a81548173ffffffffffffffffffffffffffffffffffffffff021916908373ffffffffffffffffffffffffffffffffffffffff1602179055506101008201518160070160146101000a81548160ff0219169083151502179055509050506001805461193d9190612655565b60018190555060008473ffffffffffffffffffffffffffffffffffffffff166323b872dd611969611a69565b308e6040518463ffffffff1660e01b8152600401611989939291906126ab565b6020604051808303816000875af11580156119a8573d6000803e3d6000fd5b505050506040513d601f19601f820116820180604052508101906119cc9190611f86565b9050806119dc576119db611fb3565b5b8b73ffffffffffffffffffffffffffffffffffffffff166119fb611a69565b73ffffffffffffffffffffffffffffffffffffffff16847f7b01d409597969366dc268d7f957a990d1ca3d3449baf8fb45db67351aecfe788e8e8e8e604051611a4794939291906126e2565b60405180910390a4829650505050505050600160008190555095945050505050565b600033905090565b600080fd5b6000819050919050565b611a8981611a76565b8114611a9457600080fd5b50565b600081359050611aa681611a80565b92915050565b600073ffffffffffffffffffffffffffffffffffffffff82169050919050565b6000611ad782611aac565b9050919050565b611ae781611acc565b8114611af257600080fd5b50565b600081359050611b0481611ade565b92915050565b60008060408385031215611b2157611b20611a71565b5b6000611b2f85828601611a97565b9250506020611b4085828601611af5565b9150509250929050565b611b5381611a76565b82525050565b6000602082019050611b6e6000830184611b4a565b92915050565b600060208284031215611b8a57611b89611a71565b5b6000611b9884828501611a97565b91505092915050565b60008115159050919050565b611bb681611ba1565b82525050565b6000602082019050611bd16000830184611bad565b92915050565b60008060408385031215611bee57611bed611a71565b5b6000611bfc85828601611a97565b9250506020611c0d85828601611a97565b9150509250929050565b611c2081611acc565b82525050565b600061010082019050611c3c600083018b611c17565b611c49602083018a611c17565b611c566040830189611c17565b611c636060830188611b4a565b611c706080830187611b4a565b611c7d60a0830186611b4a565b611c8a60c0830185611b4a565b611c9760e0830184611b4a565b9998505050505050505050565b600080600080600060a08688031215611cc057611cbf611a71565b5b6000611cce88828901611af5565b9550506020611cdf88828901611a97565b9450506040611cf088828901611af5565b9350506060611d0188828901611a97565b9250506080611d1288828901611a97565b9150509295509295909350565b600082825260208201905092915050565b7f496e76616c69642053747265616d496400000000000000000000000000000000600082015250565b6000611d66601083611d1f565b9150611d7182611d30565b602082019050919050565b60006020820190508181036000830152611d9581611d59565b9050919050565b7f4e487b7100000000000000000000000000000000000000000000000000000000600052601160045260246000fd5b6000611dd682611a76565b9150611de183611a76565b9250817fffffffffffffffffffffffffffffffffffffffffffffffffffffffffffffffff0483118215151615611e1a57611e19611d9c565b5b828202905092915050565b6000611e3082611a76565b9150611e3b83611a76565b925082821015611e4e57611e4d611d9c565b5b828203905092915050565b7f5265656e7472616e637947756172643a207265656e7472616e742063616c6c00600082015250565b6000611e8f601f83611d1f565b9150611e9a82611e59565b602082019050919050565b60006020820190508181036000830152611ebe81611e82565b9050919050565b7f496e76616c696420616464726573730000000000000000000000000000000000600082015250565b6000611efb600f83611d1f565b9150611f0682611ec5565b602082019050919050565b60006020820190508181036000830152611f2a81611eee565b9050919050565b6000604082019050611f466000830185611c17565b611f536020830184611b4a565b9392505050565b611f6381611ba1565b8114611f6e57600080fd5b50565b600081519050611f8081611f5a565b92915050565b600060208284031215611f9c57611f9b611a71565b5b6000611faa84828501611f71565b91505092915050565b7f4e487b7100000000000000000000000000000000000000000000000000000000600052600160045260246000fd5b6000604082019050611ff76000830185611b4a565b6120046020830184611b4a565b9392505050565b7f496e76616c696420616d6f756e74000000000000000000000000000000000000600082015250565b6000612041600e83611d1f565b915061204c8261200b565b602082019050919050565b6000602082019050818103600083015261207081612034565b9050919050565b7f416d6f756e74206d6f7265207468616e2063757272656e742062616c616e6365600082015250565b60006120ad602083611d1f565b91506120b882612077565b602082019050919050565b600060208201905081810360008301526120dc816120a0565b9050919050565b7f496e76616c69642053746172742054696d650000000000000000000000000000600082015250565b6000612119601283611d1f565b9150612124826120e3565b602082019050919050565b600060208201905081810360008301526121488161210c565b9050919050565b7f496e76616c696420416d6f756e74000000000000000000000000000000000000600082015250565b6000612185600e83611d1f565b91506121908261214f565b602082019050919050565b600060208201905081810360008301526121b481612178565b9050919050565b7f496e76616c696420546f6b656e20416464726573730000000000000000000000600082015250565b60006121f1601583611d1f565b91506121fc826121bb565b602082019050919050565b60006020820190508181036000830152612220816121e4565b9050919050565b7f496e76616c696420526563697069656e74204164647265737300000000000000600082015250565b600061225d601983611d1f565b915061226882612227565b602082019050919050565b6000602082019050818103600083015261228c81612250565b9050919050565b7f53656e6465722043616e277420626520526563697069656e7400000000000000600082015250565b60006122c9601983611d1f565b91506122d482612293565b602082019050919050565b600060208201905081810360008301526122f8816122bc565b9050919050565b7f5361626c69657220436f6e74726163742043616e27742062652052656369706960008201527f656e740000000000000000000000000000000000000000000000000000000000602082015250565b600061235b602383611d1f565b9150612366826122ff565b604082019050919050565b6000602082019050818103600083015261238a8161234e565b9050919050565b7f54696d652064656c74612073686f756c64206d6f7265207468616e207a65726f600082015250565b60006123c7602083611d1f565b91506123d282612391565b602082019050919050565b600060208201905081810360008301526123f6816123ba565b9050919050565b7f4465706f73697420736d616c6c6572207468616e2074696d652064656c746100600082015250565b6000612433601f83611d1f565b915061243e826123fd565b602082019050919050565b6000602082019050818103600083015261246281612426565b9050919050565b7f4e487b7100000000000000000000000000000000000000000000000000000000600052601260045260246000fd5b60006124a382611a76565b91506124ae83611a76565b9250826124be576124bd612469565b5b828206905092915050565b7f4465706f736974206973206e6f74206d756c206f662074696d652064656c7461600082015250565b60006124ff602083611d1f565b915061250a826124c9565b602082019050919050565b6000602082019050818103600083015261252e816124f2565b9050919050565b600060208201905061254a6000830184611c17565b92915050565b60008151905061255f81611a80565b92915050565b60006020828403121561257b5761257a611a71565b5b600061258984828501612550565b91505092915050565b7f53656e6465722062616c616e6365206973206c657373207468616e206465706f60008201527f7369740000000000000000000000000000000000000000000000000000000000602082015250565b60006125ee602383611d1f565b91506125f982612592565b604082019050919050565b6000602082019050818103600083015261261d816125e1565b9050919050565b600061262f82611a76565b915061263a83611a76565b92508261264a57612649612469565b5b828204905092915050565b600061266082611a76565b915061266b83611a76565b9250827fffffffffffffffffffffffffffffffffffffffffffffffffffffffffffffffff038211156126a05761269f611d9c565b5b828201905092915050565b60006060820190506126c06000830186611c17565b6126cd6020830185611c17565b6126da6040830184611b4a565b949350505050565b60006080820190506126f76000830187611b4a565b6127046020830186611c17565b6127116040830185611b4a565b61271e6060830184611b4a565b9594505050505056fea2646970667358221220081f39fd39c5b5db08524a23a26017563f8efec4471f5861eaf17830bf2d191f64736f6c634300080b0033",
  "immutableReferences": {},
  "source": "// SPDX-License-Identifier: UNLICENSED\n\npragma solidity 0.8.11;\n\nimport \"@openzeppelin/contracts/token/ERC20/IERC20.sol\";\nimport \"@openzeppelin/contracts/utils/Context.sol\";\nimport \"@openzeppelin/contracts/utils/math/SafeMath.sol\";\nimport \"@openzeppelin/contracts/security/ReentrancyGuard.sol\";\n\nlibrary Types {\n    struct Stream {\n        uint256 deposit;\n        uint256 ratePerSecond;\n        uint256 remainingBalance;\n        uint256 startTime;\n        uint256 stopTime;\n        address recipient;\n        address sender;\n        address tokenAddress;\n        bool isEntity;\n    }\n}\n\ncontract Vesting is Context, ReentrancyGuard {\n    using SafeMath for uint256;\n\n    uint256 public nxtStreamId;\n\n    mapping(uint256 => Types.Stream) streams;\n\n    modifier validStream(uint256 streamId) {\n        require(streams[streamId].isEntity, \"Invalid StreamId\");\n        _;\n    }\n\n    event CreateStream(\n        uint256 indexed streamId,\n        address indexed sender,\n        address indexed recipient,\n        uint256 deposit,\n        address tokenAddress,\n        uint256 startTime,\n        uint256 stopTime\n    );\n\n    event WithdrawlFromStream(\n        uint256 indexed streamId,\n        address indexed recipient,\n        uint256 amount\n    );\n\n    event CancelStream(\n        uint256 indexed streamId,\n        address indexed sender,\n        address indexed recipient,\n        uint256 senderBalance,\n        uint256 recipientBalance\n    );\n\n    constructor() {\n        nxtStreamId = 1000;\n    }\n\n    function getStream(uint256 streamId)\n        external\n        view\n        validStream(streamId)\n        returns (\n            address sender,\n            address recipient,\n            address tokenAddress,\n            uint256 deposit,\n            uint256 startTime,\n            uint256 stopTime,\n            uint256 remainingBalance,\n            uint256 ratePerSecond\n        )\n    {\n        sender = streams[streamId].sender;\n        recipient = streams[streamId].recipient;\n        tokenAddress = streams[streamId].tokenAddress;\n        deposit = streams[streamId].deposit;\n        startTime = streams[streamId].startTime;\n        stopTime = streams[streamId].stopTime;\n        remainingBalance = streams[streamId].remainingBalance;\n        ratePerSecond = streams[streamId].ratePerSecond;\n    }\n\n    function deltaOf(uint256 streamId)\n        public\n        view\n        validStream(streamId)\n        returns (uint256 delta)\n    {\n        if (block.timestamp <= streams[streamId].startTime) return 0;\n\n        if (block.timestamp < streams[streamId].stopTime)\n            return block.timestamp - streams[streamId].startTime;\n\n        return streams[streamId].stopTime - streams[streamId].startTime;\n    }\n\n    function balanceOf(uint256 streamId, address who)\n        public\n        view\n        validStream(streamId)\n        returns (uint256)\n    {\n        Types.Stream memory stream = streams[streamId];\n\n        uint256 delta = deltaOf(streamId);\n        uint256 balance = delta * stream.ratePerSecond;\n\n        if (stream.deposit > stream.remainingBalance) {\n            uint256 withdrawlAmount = stream.deposit - stream.remainingBalance;\n            balance = balance - withdrawlAmount;\n        }\n\n        if (who == stream.sender) return stream.remainingBalance - balance;\n\n        if (who == stream.recipient) return balance;\n\n        return 0;\n    }\n\n    function createStream(\n        address recipient,\n        uint256 deposit,\n        address tokenAddress,\n        uint256 startTime,\n        uint256 stopTime\n    ) public nonReentrant returns (uint256) {\n        require(startTime > block.timestamp, \"Invalid Start Time\");\n        require(deposit > 0, \"Invalid Amount\");\n        require(tokenAddress != address(0), \"Invalid Token Address\");\n        require(recipient != address(0), \"Invalid Recipient Address\");\n        require(recipient != msg.sender, \"Sender Can't be Recipient\");\n        require(recipient != address(this), \"Sablier Contract Can't be Recipient\");\n\n        uint256 duration = stopTime - startTime;\n\n        require(duration > 0, \"Time delta should more than zero\");\n        require(deposit >= duration, \"Deposit smaller than time delta\");\n        require(deposit % duration == 0, \"Deposit is not mul of time delta\");\n\n        IERC20 erc20 = IERC20(tokenAddress);\n        uint256 bal = erc20.balanceOf(_msgSender());\n\n        require(deposit <= bal, \"Sender balance is less than deposit\");\n\n        uint256 streamId = nxtStreamId;\n        uint256 ratePerSecond = deposit / duration;\n\n        streams[streamId] = Types.Stream({\n            remainingBalance: deposit,\n            deposit: deposit,\n            isEntity: true,\n            ratePerSecond: ratePerSecond,\n            recipient: recipient,\n            sender: msg.sender,\n            startTime: startTime,\n            stopTime: stopTime,\n            tokenAddress: tokenAddress\n        });\n\n        nxtStreamId = nxtStreamId + 1;\n\n        bool result = erc20.transferFrom(_msgSender(), address(this), deposit);\n        assert(result);\n\n        emit CreateStream(\n            streamId,\n            _msgSender(),\n            recipient,\n            deposit,\n            tokenAddress,\n            startTime,\n            stopTime\n        );\n\n        return streamId;\n    }\n\n    function withdrawFromStream(uint256 streamId, uint256 amount)\n        external\n        nonReentrant\n        validStream(streamId)\n        returns (bool)\n    {\n        require(\n            _msgSender() == streams[streamId].recipient ||\n                _msgSender() == streams[streamId].sender,\n            \"Invalid address\"\n        );\n        require(amount > 0, \"Invalid amount\");\n\n        Types.Stream memory stream = streams[streamId];\n\n        uint256 balance = balanceOf(streamId, stream.recipient);\n\n        require(balance >= amount, \"Amount more than current balance\");\n\n        stream.remainingBalance = balance - amount;\n\n        if (stream.remainingBalance == 0) {\n            delete streams[streamId];\n        }\n\n        bool result = IERC20(stream.tokenAddress).transfer(stream.recipient, amount);\n        assert(result);\n\n        emit WithdrawlFromStream(streamId, stream.recipient, amount);\n\n        return true;\n    }\n\n    function cancelStream(uint256 streamId)\n        external\n        nonReentrant\n        validStream(streamId)\n        returns (bool)\n    {\n        require(\n            _msgSender() == streams[streamId].recipient ||\n                _msgSender() == streams[streamId].sender,\n            \"Invalid address\"\n        );\n\n        Types.Stream memory stream = streams[streamId];\n\n        uint256 senderBalance = balanceOf(streamId, stream.sender);\n        uint256 recipientBalance = balanceOf(streamId, stream.recipient);\n\n        IERC20 _erc20 = IERC20(stream.tokenAddress);\n\n        if (recipientBalance > 0) assert(_erc20.transfer(stream.recipient, recipientBalance));\n        if (senderBalance > 0) assert(_erc20.transfer(stream.sender, senderBalance));\n\n        delete streams[streamId];\n\n        emit CancelStream(\n            streamId,\n            stream.sender,\n            stream.recipient,\n            senderBalance,\n            recipientBalance\n        );\n\n        return true;\n    }\n}\n",
  "sourcePath": "/home/dev-varun/Documents/Solidity/Vesting-Protocol/contracts/Vesting.sol",
  "compiler": {
    "name": "solc",
    "version": "0.8.11+commit.d7f03943.Emscripten.clang"
  },
  "schemaVersion": "3.4.4",
  "updatedAt": "2022-04-10T15:09:36.806Z",
  "devdoc": {
    "kind": "dev",
    "methods": {},
    "version": 1
  },
  "userdoc": {
    "kind": "user",
    "methods": {},
    "version": 1
  }
}